{
  "_format": "hh-sol-artifact-1",
  "contractName": "EventWarnings",
  "sourceName": "contracts/EventWarnings.sol",
  "abi": [
    {
      "anonymous": false,
      "inputs": [
        {
          "indexed": false,
          "internalType": "enum WarningLevel",
          "name": "level",
          "type": "uint8"
        },
        {
          "indexed": false,
          "internalType": "string",
          "name": "message",
          "type": "string"
        },
        {
          "indexed": false,
          "internalType": "address",
          "name": "editedBy",
          "type": "address"
        },
        {
          "indexed": false,
          "internalType": "address",
          "name": "warnAbout",
          "type": "address"
        }
      ],
      "name": "EditWarning",
      "type": "event"
    },
    {
      "anonymous": false,
      "inputs": [
        {
          "indexed": false,
          "internalType": "enum WarningLevel",
          "name": "level",
          "type": "uint8"
        },
        {
          "indexed": false,
          "internalType": "string",
          "name": "message",
          "type": "string"
        },
        {
          "indexed": false,
          "internalType": "address",
          "name": "createdBy",
          "type": "address"
        },
        {
          "indexed": false,
          "internalType": "address",
          "name": "warnAbout",
          "type": "address"
        }
      ],
      "name": "NewWarning",
      "type": "event"
    },
    {
      "inputs": [
        {
          "internalType": "enum WarningLevel",
          "name": "level",
          "type": "uint8"
        },
        {
          "internalType": "string",
          "name": "message",
          "type": "string"
        },
        {
          "internalType": "address",
          "name": "about",
          "type": "address"
        }
      ],
      "name": "createWarning",
      "outputs": [],
      "stateMutability": "nonpayable",
      "type": "function"
    },
    {
      "inputs": [
        {
          "internalType": "address",
          "name": "",
          "type": "address"
        },
        {
          "internalType": "address",
          "name": "",
          "type": "address"
        }
      ],
      "name": "createdWarning",
      "outputs": [
        {
          "internalType": "bool",
          "name": "",
          "type": "bool"
        }
      ],
      "stateMutability": "view",
      "type": "function"
    },
    {
      "inputs": [
        {
          "internalType": "enum WarningLevel",
          "name": "level",
          "type": "uint8"
        },
        {
          "internalType": "string",
          "name": "message",
          "type": "string"
        },
        {
          "internalType": "address",
          "name": "about",
          "type": "address"
        },
        {
          "internalType": "uint256",
          "name": "arrayIndex",
          "type": "uint256"
        }
      ],
      "name": "editWarning",
      "outputs": [],
      "stateMutability": "nonpayable",
      "type": "function"
    },
    {
      "inputs": [
        {
          "internalType": "address",
          "name": "about",
          "type": "address"
        }
      ],
      "name": "getWarnings",
      "outputs": [
        {
          "components": [
            {
              "internalType": "enum WarningLevel",
              "name": "level",
              "type": "uint8"
            },
            {
              "internalType": "string",
              "name": "message",
              "type": "string"
            },
            {
              "internalType": "address",
              "name": "createdBy",
              "type": "address"
            }
          ],
          "internalType": "struct Warning[]",
          "name": "",
          "type": "tuple[]"
        }
      ],
      "stateMutability": "view",
      "type": "function"
    },
    {
      "inputs": [
        {
          "internalType": "address",
          "name": "",
          "type": "address"
        }
      ],
      "name": "warningCount",
      "outputs": [
        {
          "internalType": "uint256",
          "name": "",
          "type": "uint256"
        }
      ],
      "stateMutability": "view",
      "type": "function"
    }
  ],
  "bytecode": "0x608060405234801561001057600080fd5b50610b04806100206000396000f3fe608060405234801561001057600080fd5b50600436106100675760003560e01c8063cdcbd9c211610050578063cdcbd9c2146100c4578063e1aa2ed8146100e4578063e31a8c3c1461011257600080fd5b80635bf6faf41461006c57806396ba5913146100af575b600080fd5b61009a61007a36600461082c565b600260209081526000928352604080842090915290825290205460ff1681565b60405190151581526020015b60405180910390f35b6100c26100bd36600461085e565b610125565b005b6100d76100d236600461080b565b610365565b6040516100a6919061094e565b6101046100f236600461080b565b60016020526000908152604090205481565b6040519081526020016100a6565b6100c26101203660046108c1565b6104d5565b3360009081526002602090815260408083206001600160a01b038516845290915290205460ff161561019e5760405162461bcd60e51b815260206004820152601760248201527f5761726e696e6720616c7265616479206578697374732100000000000000000060448201526064015b60405180910390fd5b600060405180606001604052808660038111156101cb57634e487b7160e01b600052602160045260246000fd5b815260200185858080601f0160208091040260200160405190810160405280939291908181526020018383808284376000920182905250938552505033602093840152506001600160a01b03851681528082526040812080546001818101835591835292909120835160039384029091018054949550859490939192849260ff1990921691849081111561026f57634e487b7160e01b600052602160045260246000fd5b0217905550602082810151805161028c926001850192019061068c565b5060409182015160029190910180547fffffffffffffffffffffffff0000000000000000000000000000000000000000166001600160a01b03928316179055831660009081526001602081905291812080549091906102ec908490610a6f565b90915550503360008181526002602090815260408083206001600160a01b038716845290915290819020805460ff19166001179055517f2677f269e3e37b01d5266dcf595bdcb66ffb68b2b9a2f0b64210dbccfc6e47b59161035691889188918891908890610a1a565b60405180910390a15050505050565b6001600160a01b038116600090815260208181526040808320805482518185028101850190935280835260609492939192909184015b828210156104ca57838290600052602060002090600302016040518060600160405290816000820160009054906101000a900460ff1660038111156103f057634e487b7160e01b600052602160045260246000fd5b600381111561040f57634e487b7160e01b600052602160045260246000fd5b815260200160018201805461042390610a93565b80601f016020809104026020016040519081016040528092919081815260200182805461044f90610a93565b801561049c5780601f106104715761010080835404028352916020019161049c565b820191906000526020600020905b81548152906001019060200180831161047f57829003601f168201915b5050509183525050600291909101546001600160a01b0316602091820152908252600192909201910161039b565b505050509050919050565b6001600160a01b038216600090815260208190526040902080543391908390811061051057634e487b7160e01b600052603260045260246000fd5b60009182526020909120600260039092020101546001600160a01b03161461057a5760405162461bcd60e51b815260206004820152601560248201527f4f6e6c792063726561746f722063616e206564697400000000000000000000006044820152606401610195565b6001600160a01b03821660009081526020819052604090208054869190839081106105b557634e487b7160e01b600052603260045260246000fd5b906000526020600020906003020160000160006101000a81548160ff021916908360038111156105f557634e487b7160e01b600052602160045260246000fd5b02179055506001600160a01b03821660009081526020819052604090208054859185918490811061063657634e487b7160e01b600052603260045260246000fd5b90600052602060002090600302016001019190610654929190610710565b507fa5358a097ed549e6cbc583e924aab57d1a427780c41ea60037745c7cef424e068585853386604051610356959493929190610a1a565b82805461069890610a93565b90600052602060002090601f0160209004810192826106ba5760008555610700565b82601f106106d357805160ff1916838001178555610700565b82800160010185558215610700579182015b828111156107005782518255916020019190600101906106e5565b5061070c929150610784565b5090565b82805461071c90610a93565b90600052602060002090601f01602090048101928261073e5760008555610700565b82601f106107575782800160ff19823516178555610700565b82800160010185558215610700579182015b82811115610700578235825591602001919060010190610769565b5b8082111561070c5760008155600101610785565b80356001600160a01b03811681146107b057600080fd5b919050565b8035600481106107b057600080fd5b60008083601f8401126107d5578182fd5b50813567ffffffffffffffff8111156107ec578182fd5b60208301915083602082850101111561080457600080fd5b9250929050565b60006020828403121561081c578081fd5b61082582610799565b9392505050565b6000806040838503121561083e578081fd5b61084783610799565b915061085560208401610799565b90509250929050565b60008060008060608587031215610873578182fd5b61087c856107b5565b9350602085013567ffffffffffffffff811115610897578283fd5b6108a3878288016107c4565b90945092506108b6905060408601610799565b905092959194509250565b6000806000806000608086880312156108d8578081fd5b6108e1866107b5565b9450602086013567ffffffffffffffff8111156108fc578182fd5b610908888289016107c4565b909550935061091b905060408701610799565b949793965091946060013592915050565b6004811061094a57634e487b7160e01b600052602160045260246000fd5b9052565b60006020808301818452808551808352604092508286019150828160051b870101848801865b83811015610a0c57603f198984030185528151606061099485835161092c565b88820151818a870152805180838801528b92505b808310156109c6578183018b015187840160800152918a01916109a8565b808311156109d7578b608082890101525b928901516001600160a01b038116878b015292978a0197601f01601f1916959095016080019450505090860190600101610974565b509098975050505050505050565b610a24818761092c565b60806020820152836080820152838560a0830137600060a08583018101919091526001600160a01b039384166040830152919092166060830152601f909201601f1916010192915050565b60008219821115610a8e57634e487b7160e01b81526011600452602481fd5b500190565b600181811c90821680610aa757607f821691505b60208210811415610ac857634e487b7160e01b600052602260045260246000fd5b5091905056fea26469706673582212206d65b2f444cb5992865caac1e9e8253823ba08d00127022c7bf09fbab433221464736f6c63430008040033",
  "linkReferences": {},
  "deployedLinkReferences": {}
}